{
  "contractName": "Assignment3A",
  "abi": [
    {
      "inputs": [],
      "stateMutability": "nonpayable",
      "type": "constructor"
    },
    {
      "anonymous": false,
      "inputs": [
        {
          "indexed": true,
          "internalType": "address",
          "name": "owner",
          "type": "address"
        },
        {
          "indexed": true,
          "internalType": "address",
          "name": "spender",
          "type": "address"
        },
        {
          "indexed": false,
          "internalType": "uint256",
          "name": "value",
          "type": "uint256"
        }
      ],
      "name": "Approval",
      "type": "event"
    },
    {
      "anonymous": false,
      "inputs": [
        {
          "indexed": true,
          "internalType": "address",
          "name": "from",
          "type": "address"
        },
        {
          "indexed": true,
          "internalType": "address",
          "name": "to",
          "type": "address"
        },
        {
          "indexed": false,
          "internalType": "uint256",
          "name": "value",
          "type": "uint256"
        }
      ],
      "name": "Transfer",
      "type": "event"
    },
    {
      "inputs": [],
      "name": "contractOwner",
      "outputs": [
        {
          "internalType": "address",
          "name": "",
          "type": "address"
        }
      ],
      "stateMutability": "view",
      "type": "function"
    },
    {
      "stateMutability": "payable",
      "type": "receive"
    },
    {
      "inputs": [
        {
          "internalType": "uint256",
          "name": "tokensPerEther",
          "type": "uint256"
        }
      ],
      "name": "setTokensPerEther",
      "outputs": [],
      "stateMutability": "nonpayable",
      "type": "function"
    },
    {
      "inputs": [],
      "name": "buy",
      "outputs": [],
      "stateMutability": "payable",
      "type": "function"
    },
    {
      "inputs": [],
      "name": "name",
      "outputs": [
        {
          "internalType": "string",
          "name": "",
          "type": "string"
        }
      ],
      "stateMutability": "view",
      "type": "function"
    },
    {
      "inputs": [],
      "name": "symbol",
      "outputs": [
        {
          "internalType": "string",
          "name": "",
          "type": "string"
        }
      ],
      "stateMutability": "view",
      "type": "function"
    },
    {
      "inputs": [],
      "name": "decimals",
      "outputs": [
        {
          "internalType": "uint8",
          "name": "",
          "type": "uint8"
        }
      ],
      "stateMutability": "view",
      "type": "function"
    },
    {
      "inputs": [],
      "name": "totalSupply",
      "outputs": [
        {
          "internalType": "uint256",
          "name": "",
          "type": "uint256"
        }
      ],
      "stateMutability": "view",
      "type": "function"
    },
    {
      "inputs": [
        {
          "internalType": "address",
          "name": "account",
          "type": "address"
        }
      ],
      "name": "balanceOf",
      "outputs": [
        {
          "internalType": "uint256",
          "name": "",
          "type": "uint256"
        }
      ],
      "stateMutability": "view",
      "type": "function"
    },
    {
      "inputs": [
        {
          "internalType": "address",
          "name": "recipient",
          "type": "address"
        },
        {
          "internalType": "uint256",
          "name": "amount",
          "type": "uint256"
        }
      ],
      "name": "transfer",
      "outputs": [
        {
          "internalType": "bool",
          "name": "",
          "type": "bool"
        }
      ],
      "stateMutability": "nonpayable",
      "type": "function"
    },
    {
      "inputs": [
        {
          "internalType": "address",
          "name": "owner",
          "type": "address"
        },
        {
          "internalType": "address",
          "name": "spender",
          "type": "address"
        }
      ],
      "name": "allowance",
      "outputs": [
        {
          "internalType": "uint256",
          "name": "",
          "type": "uint256"
        }
      ],
      "stateMutability": "view",
      "type": "function"
    },
    {
      "inputs": [
        {
          "internalType": "address",
          "name": "spender",
          "type": "address"
        },
        {
          "internalType": "uint256",
          "name": "amount",
          "type": "uint256"
        }
      ],
      "name": "approve",
      "outputs": [
        {
          "internalType": "bool",
          "name": "",
          "type": "bool"
        }
      ],
      "stateMutability": "nonpayable",
      "type": "function"
    },
    {
      "inputs": [
        {
          "internalType": "address",
          "name": "sender",
          "type": "address"
        },
        {
          "internalType": "address",
          "name": "recipient",
          "type": "address"
        },
        {
          "internalType": "uint256",
          "name": "amount",
          "type": "uint256"
        }
      ],
      "name": "transferFrom",
      "outputs": [
        {
          "internalType": "bool",
          "name": "",
          "type": "bool"
        }
      ],
      "stateMutability": "nonpayable",
      "type": "function"
    },
    {
      "inputs": [
        {
          "internalType": "address",
          "name": "spender",
          "type": "address"
        },
        {
          "internalType": "uint256",
          "name": "addedValue",
          "type": "uint256"
        }
      ],
      "name": "increaseAllowance",
      "outputs": [
        {
          "internalType": "bool",
          "name": "",
          "type": "bool"
        }
      ],
      "stateMutability": "nonpayable",
      "type": "function"
    },
    {
      "inputs": [
        {
          "internalType": "address",
          "name": "spender",
          "type": "address"
        },
        {
          "internalType": "uint256",
          "name": "subtractedValue",
          "type": "uint256"
        }
      ],
      "name": "decreaseAllowance",
      "outputs": [
        {
          "internalType": "bool",
          "name": "",
          "type": "bool"
        }
      ],
      "stateMutability": "nonpayable",
      "type": "function"
    }
  ],
  "bytecode": "0x6080604052620186a060025560646003556040518060400160405280600c81526020017f41737369676e6d656e7433410000000000000000000000000000000000000000815250600490805190602001906200005d9291906200017f565b506040518060400160405280600381526020017f413341000000000000000000000000000000000000000000000000000000000081525060059080519060200190620000ab9291906200017f565b50348015620000b957600080fd5b50620000ca6200017760201b60201c565b600660006101000a81548173ffffffffffffffffffffffffffffffffffffffff021916908373ffffffffffffffffffffffffffffffffffffffff160217905550600254600080600660009054906101000a900473ffffffffffffffffffffffffffffffffffffffff1673ffffffffffffffffffffffffffffffffffffffff1673ffffffffffffffffffffffffffffffffffffffff1681526020019081526020016000208190555062000294565b600033905090565b8280546200018d906200022f565b90600052602060002090601f016020900481019282620001b15760008555620001fd565b82601f10620001cc57805160ff1916838001178555620001fd565b82800160010185558215620001fd579182015b82811115620001fc578251825591602001919060010190620001df565b5b5090506200020c919062000210565b5090565b5b808211156200022b57600081600090555060010162000211565b5090565b600060028204905060018216806200024857607f821691505b602082108114156200025f576200025e62000265565b5b50919050565b7f4e487b7100000000000000000000000000000000000000000000000000000000600052602260045260246000fd5b6116b980620002a46000396000f3fe6080604052600436106100e15760003560e01c8063904bd6d01161007f578063a6f2ae3a11610059578063a6f2ae3a1461035b578063a9059cbb14610365578063ce606ee0146103a2578063dd62ed3e146103cd57610150565b8063904bd6d0146102ca57806395d89b41146102f3578063a457c2d71461031e57610150565b806323b872dd116100bb57806323b872dd146101e8578063313ce56714610225578063395093511461025057806370a082311461028d57610150565b806306fdde0314610155578063095ea7b31461018057806318160ddd146101bd57610150565b3661015057670de0b6b3a76400003410156100fb57600080fd5b6000600354670de0b6b3a7640000346101149190611472565b61011e91906114a3565b905061014d600660009054906101000a900473ffffffffffffffffffffffffffffffffffffffff16338361040a565b50005b600080fd5b34801561016157600080fd5b5061016a610675565b60405161017791906112c8565b60405180910390f35b34801561018c57600080fd5b506101a760048036038101906101a29190610eee565b610707565b6040516101b491906112ad565b60405180910390f35b3480156101c957600080fd5b506101d2610725565b6040516101df91906113ca565b60405180910390f35b3480156101f457600080fd5b5061020f600480360381019061020a9190610e9f565b61072f565b60405161021c91906112ad565b60405180910390f35b34801561023157600080fd5b5061023a610827565b60405161024791906113e5565b60405180910390f35b34801561025c57600080fd5b5061027760048036038101906102729190610eee565b61082c565b60405161028491906112ad565b60405180910390f35b34801561029957600080fd5b506102b460048036038101906102af9190610e3a565b6108d8565b6040516102c191906113ca565b60405180910390f35b3480156102d657600080fd5b506102f160048036038101906102ec9190610f2a565b610920565b005b3480156102ff57600080fd5b5061030861098b565b60405161031591906112c8565b60405180910390f35b34801561032a57600080fd5b5061034560048036038101906103409190610eee565b610a1d565b60405161035291906112ad565b60405180910390f35b610363610b08565b005b34801561037157600080fd5b5061038c60048036038101906103879190610eee565b610b72565b60405161039991906112ad565b60405180910390f35b3480156103ae57600080fd5b506103b7610b90565b6040516103c49190611292565b60405180910390f35b3480156103d957600080fd5b506103f460048036038101906103ef9190610e63565b610bb6565b60405161040191906113ca565b60405180910390f35b600073ffffffffffffffffffffffffffffffffffffffff168373ffffffffffffffffffffffffffffffffffffffff16141561047a576040517f08c379a00000000000000000000000000000000000000000000000000000000081526004016104719061136a565b60405180910390fd5b600073ffffffffffffffffffffffffffffffffffffffff168273ffffffffffffffffffffffffffffffffffffffff1614156104ea576040517f08c379a00000000000000000000000000000000000000000000000000000000081526004016104e1906112ea565b60405180910390fd5b60008060008573ffffffffffffffffffffffffffffffffffffffff1673ffffffffffffffffffffffffffffffffffffffff16815260200190815260200160002054905081811015610570576040517f08c379a00000000000000000000000000000000000000000000000000000000081526004016105679061132a565b60405180910390fd5b8181036000808673ffffffffffffffffffffffffffffffffffffffff1673ffffffffffffffffffffffffffffffffffffffff16815260200190815260200160002081905550816000808573ffffffffffffffffffffffffffffffffffffffff1673ffffffffffffffffffffffffffffffffffffffff1681526020019081526020016000206000828254610603919061141c565b925050819055508273ffffffffffffffffffffffffffffffffffffffff168473ffffffffffffffffffffffffffffffffffffffff167fddf252ad1be2c89b69c2b068fc378daa952ba7f163c4a11628f55a4df523b3ef8460405161066791906113ca565b60405180910390a350505050565b60606004805461068490611585565b80601f01602080910402602001604051908101604052809291908181526020018280546106b090611585565b80156106fd5780601f106106d2576101008083540402835291602001916106fd565b820191906000526020600020905b8154815290600101906020018083116106e057829003601f168201915b5050505050905090565b600061071b610714610c3d565b8484610c45565b6001905092915050565b6000600254905090565b600061073c84848461040a565b6000600160008673ffffffffffffffffffffffffffffffffffffffff1673ffffffffffffffffffffffffffffffffffffffff1681526020019081526020016000206000610787610c3d565b73ffffffffffffffffffffffffffffffffffffffff1673ffffffffffffffffffffffffffffffffffffffff16815260200190815260200160002054905082811015610807576040517f08c379a00000000000000000000000000000000000000000000000000000000081526004016107fe9061134a565b60405180910390fd5b61081b85610813610c3d565b858403610c45565b60019150509392505050565b600090565b60006108ce610839610c3d565b848460016000610847610c3d565b73ffffffffffffffffffffffffffffffffffffffff1673ffffffffffffffffffffffffffffffffffffffff16815260200190815260200160002060008873ffffffffffffffffffffffffffffffffffffffff1673ffffffffffffffffffffffffffffffffffffffff168152602001908152602001600020546108c9919061141c565b610c45565b6001905092915050565b60008060008373ffffffffffffffffffffffffffffffffffffffff1673ffffffffffffffffffffffffffffffffffffffff168152602001908152602001600020549050919050565b600660009054906101000a900473ffffffffffffffffffffffffffffffffffffffff1673ffffffffffffffffffffffffffffffffffffffff16610961610c3d565b73ffffffffffffffffffffffffffffffffffffffff161461098157600080fd5b8060038190555050565b60606005805461099a90611585565b80601f01602080910402602001604051908101604052809291908181526020018280546109c690611585565b8015610a135780601f106109e857610100808354040283529160200191610a13565b820191906000526020600020905b8154815290600101906020018083116109f657829003601f168201915b5050505050905090565b60008060016000610a2c610c3d565b73ffffffffffffffffffffffffffffffffffffffff1673ffffffffffffffffffffffffffffffffffffffff16815260200190815260200160002060008573ffffffffffffffffffffffffffffffffffffffff1673ffffffffffffffffffffffffffffffffffffffff16815260200190815260200160002054905082811015610ae9576040517f08c379a0000000000000000000000000000000000000000000000000000000008152600401610ae0906113aa565b60405180910390fd5b610afd610af4610c3d565b85858403610c45565b600191505092915050565b670de0b6b3a7640000341015610b1d57600080fd5b6000600354670de0b6b3a764000034610b369190611472565b610b4091906114a3565b9050610b6f600660009054906101000a900473ffffffffffffffffffffffffffffffffffffffff16338361040a565b50565b6000610b86610b7f610c3d565b848461040a565b6001905092915050565b600660009054906101000a900473ffffffffffffffffffffffffffffffffffffffff1681565b6000600160008473ffffffffffffffffffffffffffffffffffffffff1673ffffffffffffffffffffffffffffffffffffffff16815260200190815260200160002060008373ffffffffffffffffffffffffffffffffffffffff1673ffffffffffffffffffffffffffffffffffffffff16815260200190815260200160002054905092915050565b600033905090565b600073ffffffffffffffffffffffffffffffffffffffff168373ffffffffffffffffffffffffffffffffffffffff161415610cb5576040517f08c379a0000000000000000000000000000000000000000000000000000000008152600401610cac9061138a565b60405180910390fd5b600073ffffffffffffffffffffffffffffffffffffffff168273ffffffffffffffffffffffffffffffffffffffff161415610d25576040517f08c379a0000000000000000000000000000000000000000000000000000000008152600401610d1c9061130a565b60405180910390fd5b80600160008573ffffffffffffffffffffffffffffffffffffffff1673ffffffffffffffffffffffffffffffffffffffff16815260200190815260200160002060008473ffffffffffffffffffffffffffffffffffffffff1673ffffffffffffffffffffffffffffffffffffffff168152602001908152602001600020819055508173ffffffffffffffffffffffffffffffffffffffff168373ffffffffffffffffffffffffffffffffffffffff167f8c5be1e5ebec7d5bd14f71427d1e84f3dd0314c0f7b2291e5b200ac8c7c3b92583604051610e0391906113ca565b60405180910390a3505050565b600081359050610e1f81611655565b92915050565b600081359050610e348161166c565b92915050565b600060208284031215610e4c57600080fd5b6000610e5a84828501610e10565b91505092915050565b60008060408385031215610e7657600080fd5b6000610e8485828601610e10565b9250506020610e9585828601610e10565b9150509250929050565b600080600060608486031215610eb457600080fd5b6000610ec286828701610e10565b9350506020610ed386828701610e10565b9250506040610ee486828701610e25565b9150509250925092565b60008060408385031215610f0157600080fd5b6000610f0f85828601610e10565b9250506020610f2085828601610e25565b9150509250929050565b600060208284031215610f3c57600080fd5b6000610f4a84828501610e25565b91505092915050565b610f5c816114fd565b82525050565b610f6b8161150f565b82525050565b6000610f7c82611400565b610f86818561140b565b9350610f96818560208601611552565b610f9f81611644565b840191505092915050565b6000610fb760238361140b565b91507f45524332303a207472616e7366657220746f20746865207a65726f206164647260008301527f65737300000000000000000000000000000000000000000000000000000000006020830152604082019050919050565b600061101d60228361140b565b91507f45524332303a20617070726f766520746f20746865207a65726f20616464726560008301527f73730000000000000000000000000000000000000000000000000000000000006020830152604082019050919050565b600061108360268361140b565b91507f45524332303a207472616e7366657220616d6f756e742065786365656473206260008301527f616c616e636500000000000000000000000000000000000000000000000000006020830152604082019050919050565b60006110e960288361140b565b91507f45524332303a207472616e7366657220616d6f756e742065786365656473206160008301527f6c6c6f77616e63650000000000000000000000000000000000000000000000006020830152604082019050919050565b600061114f60258361140b565b91507f45524332303a207472616e736665722066726f6d20746865207a65726f20616460008301527f64726573730000000000000000000000000000000000000000000000000000006020830152604082019050919050565b60006111b560248361140b565b91507f45524332303a20617070726f76652066726f6d20746865207a65726f2061646460008301527f72657373000000000000000000000000000000000000000000000000000000006020830152604082019050919050565b600061121b60258361140b565b91507f45524332303a2064656372656173656420616c6c6f77616e63652062656c6f7760008301527f207a65726f0000000000000000000000000000000000000000000000000000006020830152604082019050919050565b61127d8161153b565b82525050565b61128c81611545565b82525050565b60006020820190506112a76000830184610f53565b92915050565b60006020820190506112c26000830184610f62565b92915050565b600060208201905081810360008301526112e28184610f71565b905092915050565b6000602082019050818103600083015261130381610faa565b9050919050565b6000602082019050818103600083015261132381611010565b9050919050565b6000602082019050818103600083015261134381611076565b9050919050565b60006020820190508181036000830152611363816110dc565b9050919050565b6000602082019050818103600083015261138381611142565b9050919050565b600060208201905081810360008301526113a3816111a8565b9050919050565b600060208201905081810360008301526113c38161120e565b9050919050565b60006020820190506113df6000830184611274565b92915050565b60006020820190506113fa6000830184611283565b92915050565b600081519050919050565b600082825260208201905092915050565b60006114278261153b565b91506114328361153b565b9250827fffffffffffffffffffffffffffffffffffffffffffffffffffffffffffffffff03821115611467576114666115b7565b5b828201905092915050565b600061147d8261153b565b91506114888361153b565b925082611498576114976115e6565b5b828204905092915050565b60006114ae8261153b565b91506114b98361153b565b9250817fffffffffffffffffffffffffffffffffffffffffffffffffffffffffffffffff04831182151516156114f2576114f16115b7565b5b828202905092915050565b60006115088261151b565b9050919050565b60008115159050919050565b600073ffffffffffffffffffffffffffffffffffffffff82169050919050565b6000819050919050565b600060ff82169050919050565b60005b83811015611570578082015181840152602081019050611555565b8381111561157f576000848401525b50505050565b6000600282049050600182168061159d57607f821691505b602082108114156115b1576115b0611615565b5b50919050565b7f4e487b7100000000000000000000000000000000000000000000000000000000600052601160045260246000fd5b7f4e487b7100000000000000000000000000000000000000000000000000000000600052601260045260246000fd5b7f4e487b7100000000000000000000000000000000000000000000000000000000600052602260045260246000fd5b6000601f19601f8301169050919050565b61165e816114fd565b811461166957600080fd5b50565b6116758161153b565b811461168057600080fd5b5056fea2646970667358221220220c7e08c9d087e46eab1c2427fcf55631558164875f090e48440eefa84e9e7464736f6c63430008000033",
  "immutableReferences": {},
  "source": "// SPDX-License-Identifier: MIT\npragma solidity ^0.8.0;\nimport \"./utils/Context.sol\";\nimport \"./utils/IERC20.sol\";\nimport \"./utils/IERC20Metadata.sol\";\n\n\n\ncontract Assignment3A is Context, IERC20, IERC20Metadata {\n    mapping(address => uint256) private _balances;\n\n    mapping(address => mapping(address => uint256)) private _allowances;\n\n    uint256 private _totalSupply = 100000;\n    uint256 private _tokensPerEther = 100;\n\n    string private _name = \"Assignment3A\";\n    string private _symbol = \"A3A\";\n    address public contractOwner;\n  \n    constructor() {\n       contractOwner = _msgSender();\n       _balances[contractOwner] = _totalSupply;\n    }\n\n    function setTokensPerEther(uint256 tokensPerEther) public {\n        require(_msgSender() == contractOwner);\n        _tokensPerEther = tokensPerEther;\n    }\n    \n    function buy() public payable{\n        require(msg.value >= 1 ether);\n        uint256 tokens = (msg.value / 1000000000000000000) * _tokensPerEther;\n        _transfer(contractOwner, msg.sender, tokens);\n    }\n\n    receive() external payable {\n        require(msg.value >= 1 ether);\n        uint256 tokens = (msg.value / 1000000000000000000) * _tokensPerEther;\n        _transfer(contractOwner, msg.sender, tokens);\n    }\n    \n  \n    function name() public view virtual override returns (string memory) {\n        return _name;\n    }\n\n   \n    function symbol() public view virtual override returns (string memory) {\n        return _symbol;\n    }\n\n   \n    function decimals() public view virtual override returns (uint8) {\n        return 0;\n    }\n\n \n    function totalSupply() public view virtual override returns (uint256) {\n        return _totalSupply;\n    }\n\n   \n    function balanceOf(address account) public view virtual override returns (uint256) {\n        return _balances[account];\n    }\n\n   \n    function transfer(address recipient, uint256 amount) public virtual override returns (bool) {\n        _transfer(_msgSender(), recipient, amount);\n        return true;\n    }\n\n    function allowance(address owner, address spender) public view virtual override returns (uint256) {\n        return _allowances[owner][spender];\n    }\n\n   \n    function approve(address spender, uint256 amount) public virtual override returns (bool) {\n        _approve(_msgSender(), spender, amount);\n        return true;\n    }\n\n   \n    function transferFrom(\n        address sender,\n        address recipient,\n        uint256 amount\n    ) public virtual override returns (bool) {\n        _transfer(sender, recipient, amount);\n\n        uint256 currentAllowance = _allowances[sender][_msgSender()];\n        require(currentAllowance >= amount, \"ERC20: transfer amount exceeds allowance\");\n        unchecked {\n            _approve(sender, _msgSender(), currentAllowance - amount);\n        }\n\n        return true;\n    }\n\n  \n    function increaseAllowance(address spender, uint256 addedValue) public virtual returns (bool) {\n        _approve(_msgSender(), spender, _allowances[_msgSender()][spender] + addedValue);\n        return true;\n    }\n\n   \n    function decreaseAllowance(address spender, uint256 subtractedValue) public virtual returns (bool) {\n        uint256 currentAllowance = _allowances[_msgSender()][spender];\n        require(currentAllowance >= subtractedValue, \"ERC20: decreased allowance below zero\");\n        unchecked {\n            _approve(_msgSender(), spender, currentAllowance - subtractedValue);\n        }\n\n        return true;\n    }\n\n   \n    function _transfer(\n        address sender,\n        address recipient,\n        uint256 amount\n    ) internal virtual {\n        require(sender != address(0), \"ERC20: transfer from the zero address\");\n        require(recipient != address(0), \"ERC20: transfer to the zero address\");\n\n\n\n        uint256 senderBalance = _balances[sender];\n        require(senderBalance >= amount, \"ERC20: transfer amount exceeds balance\");\n        unchecked {\n            _balances[sender] = senderBalance - amount;\n        }\n        _balances[recipient] += amount;\n\n        emit Transfer(sender, recipient, amount);\n\n    }\n\n\n    function _approve(\n        address owner,\n        address spender,\n        uint256 amount\n    ) internal virtual {\n        require(owner != address(0), \"ERC20: approve from the zero address\");\n        require(spender != address(0), \"ERC20: approve to the zero address\");\n\n        _allowances[owner][spender] = amount;\n        emit Approval(owner, spender, amount);\n    }\n\n}\n\n\n\n\n\n",
  "sourcePath": "/Users/shahjahansamon/erc20_practice/contracts/Assignment3A.sol",
  "compiler": {
    "name": "solc",
    "version": "0.8.0+commit.c7dfd78e.Emscripten.clang"
  },
  "schemaVersion": "3.4.3",
  "updatedAt": "2021-08-23T10:34:11.592Z",
  "devdoc": {
    "kind": "dev",
    "methods": {},
    "version": 1
  },
  "userdoc": {
    "kind": "user",
    "methods": {},
    "version": 1
  }
}