{
  "contractName": "Assignment3B",
  "abi": [
    {
      "inputs": [],
      "stateMutability": "nonpayable",
      "type": "constructor"
    },
    {
      "anonymous": false,
      "inputs": [
        {
          "indexed": true,
          "internalType": "address",
          "name": "owner",
          "type": "address"
        },
        {
          "indexed": true,
          "internalType": "address",
          "name": "spender",
          "type": "address"
        },
        {
          "indexed": false,
          "internalType": "uint256",
          "name": "value",
          "type": "uint256"
        }
      ],
      "name": "Approval",
      "type": "event"
    },
    {
      "anonymous": false,
      "inputs": [
        {
          "indexed": true,
          "internalType": "address",
          "name": "from",
          "type": "address"
        },
        {
          "indexed": true,
          "internalType": "address",
          "name": "to",
          "type": "address"
        },
        {
          "indexed": false,
          "internalType": "uint256",
          "name": "value",
          "type": "uint256"
        }
      ],
      "name": "Transfer",
      "type": "event"
    },
    {
      "inputs": [],
      "name": "contractOwner",
      "outputs": [
        {
          "internalType": "address",
          "name": "",
          "type": "address"
        }
      ],
      "stateMutability": "view",
      "type": "function"
    },
    {
      "inputs": [
        {
          "internalType": "address",
          "name": "beneficiary_",
          "type": "address"
        },
        {
          "internalType": "uint256",
          "name": "releaseTime_",
          "type": "uint256"
        }
      ],
      "name": "setTmeBoundBeneficairy",
      "outputs": [],
      "stateMutability": "nonpayable",
      "type": "function"
    },
    {
      "inputs": [],
      "name": "beneficiary",
      "outputs": [
        {
          "internalType": "address",
          "name": "",
          "type": "address"
        }
      ],
      "stateMutability": "view",
      "type": "function"
    },
    {
      "inputs": [],
      "name": "releaseTime",
      "outputs": [
        {
          "internalType": "uint256",
          "name": "",
          "type": "uint256"
        }
      ],
      "stateMutability": "view",
      "type": "function"
    },
    {
      "inputs": [],
      "name": "release",
      "outputs": [],
      "stateMutability": "nonpayable",
      "type": "function"
    },
    {
      "inputs": [],
      "name": "cap",
      "outputs": [
        {
          "internalType": "uint256",
          "name": "",
          "type": "uint256"
        }
      ],
      "stateMutability": "view",
      "type": "function"
    },
    {
      "inputs": [
        {
          "internalType": "address",
          "name": "account",
          "type": "address"
        },
        {
          "internalType": "uint256",
          "name": "amount",
          "type": "uint256"
        }
      ],
      "name": "mint",
      "outputs": [],
      "stateMutability": "nonpayable",
      "type": "function"
    },
    {
      "inputs": [],
      "name": "name",
      "outputs": [
        {
          "internalType": "string",
          "name": "",
          "type": "string"
        }
      ],
      "stateMutability": "view",
      "type": "function"
    },
    {
      "inputs": [],
      "name": "symbol",
      "outputs": [
        {
          "internalType": "string",
          "name": "",
          "type": "string"
        }
      ],
      "stateMutability": "view",
      "type": "function"
    },
    {
      "inputs": [],
      "name": "decimals",
      "outputs": [
        {
          "internalType": "uint8",
          "name": "",
          "type": "uint8"
        }
      ],
      "stateMutability": "view",
      "type": "function"
    },
    {
      "inputs": [],
      "name": "totalSupply",
      "outputs": [
        {
          "internalType": "uint256",
          "name": "",
          "type": "uint256"
        }
      ],
      "stateMutability": "view",
      "type": "function"
    },
    {
      "inputs": [
        {
          "internalType": "address",
          "name": "account",
          "type": "address"
        }
      ],
      "name": "balanceOf",
      "outputs": [
        {
          "internalType": "uint256",
          "name": "",
          "type": "uint256"
        }
      ],
      "stateMutability": "view",
      "type": "function"
    },
    {
      "inputs": [
        {
          "internalType": "address",
          "name": "recipient",
          "type": "address"
        },
        {
          "internalType": "uint256",
          "name": "amount",
          "type": "uint256"
        }
      ],
      "name": "transfer",
      "outputs": [
        {
          "internalType": "bool",
          "name": "",
          "type": "bool"
        }
      ],
      "stateMutability": "nonpayable",
      "type": "function"
    },
    {
      "inputs": [
        {
          "internalType": "address",
          "name": "owner",
          "type": "address"
        },
        {
          "internalType": "address",
          "name": "spender",
          "type": "address"
        }
      ],
      "name": "allowance",
      "outputs": [
        {
          "internalType": "uint256",
          "name": "",
          "type": "uint256"
        }
      ],
      "stateMutability": "view",
      "type": "function"
    },
    {
      "inputs": [
        {
          "internalType": "address",
          "name": "spender",
          "type": "address"
        },
        {
          "internalType": "uint256",
          "name": "amount",
          "type": "uint256"
        }
      ],
      "name": "approve",
      "outputs": [
        {
          "internalType": "bool",
          "name": "",
          "type": "bool"
        }
      ],
      "stateMutability": "nonpayable",
      "type": "function"
    },
    {
      "inputs": [
        {
          "internalType": "address",
          "name": "sender",
          "type": "address"
        },
        {
          "internalType": "address",
          "name": "recipient",
          "type": "address"
        },
        {
          "internalType": "uint256",
          "name": "amount",
          "type": "uint256"
        }
      ],
      "name": "transferFrom",
      "outputs": [
        {
          "internalType": "bool",
          "name": "",
          "type": "bool"
        }
      ],
      "stateMutability": "nonpayable",
      "type": "function"
    },
    {
      "inputs": [
        {
          "internalType": "address",
          "name": "spender",
          "type": "address"
        },
        {
          "internalType": "uint256",
          "name": "addedValue",
          "type": "uint256"
        }
      ],
      "name": "increaseAllowance",
      "outputs": [
        {
          "internalType": "bool",
          "name": "",
          "type": "bool"
        }
      ],
      "stateMutability": "nonpayable",
      "type": "function"
    },
    {
      "inputs": [
        {
          "internalType": "address",
          "name": "spender",
          "type": "address"
        },
        {
          "internalType": "uint256",
          "name": "subtractedValue",
          "type": "uint256"
        }
      ],
      "name": "decreaseAllowance",
      "outputs": [
        {
          "internalType": "bool",
          "name": "",
          "type": "bool"
        }
      ],
      "stateMutability": "nonpayable",
      "type": "function"
    }
  ],
  "bytecode": "0x60a0604052620186a06002556040518060400160405280600c81526020017f41737369676e6d656e7433420000000000000000000000000000000000000000815250600390805190602001906200005892919062000191565b506040518060400160405280600381526020017f413342000000000000000000000000000000000000000000000000000000000081525060049080519060200190620000a692919062000191565b50348015620000b457600080fd5b50620000c56200018960201b60201c565b600560006101000a81548173ffffffffffffffffffffffffffffffffffffffff021916908373ffffffffffffffffffffffffffffffffffffffff160217905550600254600080600560009054906101000a900473ffffffffffffffffffffffffffffffffffffffff1673ffffffffffffffffffffffffffffffffffffffff1673ffffffffffffffffffffffffffffffffffffffff16815260200190815260200160002081905550600280546200017c919062000241565b6080818152505062000340565b600033905090565b8280546200019f90620002ac565b90600052602060002090601f016020900481019282620001c357600085556200020f565b82601f10620001de57805160ff19168380011785556200020f565b828001600101855582156200020f579182015b828111156200020e578251825591602001919060010190620001f1565b5b5090506200021e919062000222565b5090565b5b808211156200023d57600081600090555060010162000223565b5090565b60006200024e82620002a2565b91506200025b83620002a2565b9250817fffffffffffffffffffffffffffffffffffffffffffffffffffffffffffffffff0483118215151615620002975762000296620002e2565b5b828202905092915050565b6000819050919050565b60006002820490506001821680620002c557607f821691505b60208210811415620002dc57620002db62000311565b5b50919050565b7f4e487b7100000000000000000000000000000000000000000000000000000000600052601160045260246000fd5b7f4e487b7100000000000000000000000000000000000000000000000000000000600052602260045260246000fd5b608051611a7d6200035c60003960006105580152611a7d6000f3fe608060405234801561001057600080fd5b50600436106101165760003560e01c806370a08231116100a2578063a9059cbb11610071578063a9059cbb146102e5578063b91d400114610315578063ce606ee014610333578063d5feb0b114610351578063dd62ed3e1461036d57610116565b806370a082311461025d57806386d1a69f1461028d57806395d89b4114610297578063a457c2d7146102b557610116565b8063313ce567116100e9578063313ce567146101b7578063355274ea146101d557806338af3eed146101f3578063395093511461021157806340c10f191461024157610116565b806306fdde031461011b578063095ea7b31461013957806318160ddd1461016957806323b872dd14610187575b600080fd5b61012361039d565b60405161013091906116a6565b60405180910390f35b610153600480360381019061014e9190611143565b61042f565b604051610160919061168b565b60405180910390f35b61017161044d565b60405161017e9190611848565b60405180910390f35b6101a1600480360381019061019c91906110f4565b610457565b6040516101ae919061168b565b60405180910390f35b6101bf61054f565b6040516101cc9190611863565b60405180910390f35b6101dd610554565b6040516101ea9190611848565b60405180910390f35b6101fb61057c565b6040516102089190611670565b60405180910390f35b61022b60048036038101906102269190611143565b6105a6565b604051610238919061168b565b60405180910390f35b61025b60048036038101906102569190611143565b610652565b005b6102776004803603810190610272919061108f565b610850565b6040516102849190611848565b60405180910390f35b610295610898565b005b61029f610947565b6040516102ac91906116a6565b60405180910390f35b6102cf60048036038101906102ca9190611143565b6109d9565b6040516102dc919061168b565b60405180910390f35b6102ff60048036038101906102fa9190611143565b610ac4565b60405161030c919061168b565b60405180910390f35b61031d610ae2565b60405161032a9190611848565b60405180910390f35b61033b610aec565b6040516103489190611670565b60405180910390f35b61036b60048036038101906103669190611143565b610b12565b005b610387600480360381019061038291906110b8565b610ba0565b6040516103949190611848565b60405180910390f35b6060600380546103ac90611978565b80601f01602080910402602001604051908101604052809291908181526020018280546103d890611978565b80156104255780601f106103fa57610100808354040283529160200191610425565b820191906000526020600020905b81548152906001019060200180831161040857829003601f168201915b5050505050905090565b600061044361043c610c27565b8484610c2f565b6001905092915050565b6000600254905090565b6000610464848484610dfa565b6000600160008673ffffffffffffffffffffffffffffffffffffffff1673ffffffffffffffffffffffffffffffffffffffff16815260200190815260200160002060006104af610c27565b73ffffffffffffffffffffffffffffffffffffffff1673ffffffffffffffffffffffffffffffffffffffff1681526020019081526020016000205490508281101561052f576040517f08c379a000000000000000000000000000000000000000000000000000000000815260040161052690611748565b60405180910390fd5b6105438561053b610c27565b858403610c2f565b60019150509392505050565b600090565b60007f0000000000000000000000000000000000000000000000000000000000000000905090565b6000600660009054906101000a900473ffffffffffffffffffffffffffffffffffffffff16905090565b60006106486105b3610c27565b8484600160006105c1610c27565b73ffffffffffffffffffffffffffffffffffffffff1673ffffffffffffffffffffffffffffffffffffffff16815260200190815260200160002060008873ffffffffffffffffffffffffffffffffffffffff1673ffffffffffffffffffffffffffffffffffffffff16815260200190815260200160002054610643919061189a565b610c2f565b6001905092915050565b600560009054906101000a900473ffffffffffffffffffffffffffffffffffffffff1673ffffffffffffffffffffffffffffffffffffffff163373ffffffffffffffffffffffffffffffffffffffff16146106ac57600080fd5b600073ffffffffffffffffffffffffffffffffffffffff168273ffffffffffffffffffffffffffffffffffffffff16141561071c576040517f08c379a000000000000000000000000000000000000000000000000000000000815260040161071390611808565b60405180910390fd5b610724610554565b8161072d61044d565b610737919061189a565b1115610778576040517f08c379a000000000000000000000000000000000000000000000000000000000815260040161076f90611788565b60405180910390fd5b806002600082825461078a919061189a565b92505081905550806000808473ffffffffffffffffffffffffffffffffffffffff1673ffffffffffffffffffffffffffffffffffffffff16815260200190815260200160002060008282546107df919061189a565b925050819055508173ffffffffffffffffffffffffffffffffffffffff16600073ffffffffffffffffffffffffffffffffffffffff167fddf252ad1be2c89b69c2b068fc378daa952ba7f163c4a11628f55a4df523b3ef836040516108449190611848565b60405180910390a35050565b60008060008373ffffffffffffffffffffffffffffffffffffffff1673ffffffffffffffffffffffffffffffffffffffff168152602001908152602001600020549050919050565b6108a0610ae2565b4210156108e2576040517f08c379a00000000000000000000000000000000000000000000000000000000081526004016108d9906116c8565b60405180910390fd5b60006108ed30610850565b905060008111610932576040517f08c379a000000000000000000000000000000000000000000000000000000000815260040161092990611828565b60405180910390fd5b61094361093d61057c565b82610ac4565b5050565b60606004805461095690611978565b80601f016020809104026020016040519081016040528092919081815260200182805461098290611978565b80156109cf5780601f106109a4576101008083540402835291602001916109cf565b820191906000526020600020905b8154815290600101906020018083116109b257829003601f168201915b5050505050905090565b600080600160006109e8610c27565b73ffffffffffffffffffffffffffffffffffffffff1673ffffffffffffffffffffffffffffffffffffffff16815260200190815260200160002060008573ffffffffffffffffffffffffffffffffffffffff1673ffffffffffffffffffffffffffffffffffffffff16815260200190815260200160002054905082811015610aa5576040517f08c379a0000000000000000000000000000000000000000000000000000000008152600401610a9c906117e8565b60405180910390fd5b610ab9610ab0610c27565b85858403610c2f565b600191505092915050565b6000610ad8610ad1610c27565b8484610dfa565b6001905092915050565b6000600754905090565b600560009054906101000a900473ffffffffffffffffffffffffffffffffffffffff1681565b428111610b54576040517f08c379a0000000000000000000000000000000000000000000000000000000008152600401610b4b906117c8565b60405180910390fd5b81600660006101000a81548173ffffffffffffffffffffffffffffffffffffffff021916908373ffffffffffffffffffffffffffffffffffffffff160217905550806007819055505050565b6000600160008473ffffffffffffffffffffffffffffffffffffffff1673ffffffffffffffffffffffffffffffffffffffff16815260200190815260200160002060008373ffffffffffffffffffffffffffffffffffffffff1673ffffffffffffffffffffffffffffffffffffffff16815260200190815260200160002054905092915050565b600033905090565b600073ffffffffffffffffffffffffffffffffffffffff168373ffffffffffffffffffffffffffffffffffffffff161415610c9f576040517f08c379a0000000000000000000000000000000000000000000000000000000008152600401610c96906117a8565b60405180910390fd5b600073ffffffffffffffffffffffffffffffffffffffff168273ffffffffffffffffffffffffffffffffffffffff161415610d0f576040517f08c379a0000000000000000000000000000000000000000000000000000000008152600401610d0690611708565b60405180910390fd5b80600160008573ffffffffffffffffffffffffffffffffffffffff1673ffffffffffffffffffffffffffffffffffffffff16815260200190815260200160002060008473ffffffffffffffffffffffffffffffffffffffff1673ffffffffffffffffffffffffffffffffffffffff168152602001908152602001600020819055508173ffffffffffffffffffffffffffffffffffffffff168373ffffffffffffffffffffffffffffffffffffffff167f8c5be1e5ebec7d5bd14f71427d1e84f3dd0314c0f7b2291e5b200ac8c7c3b92583604051610ded9190611848565b60405180910390a3505050565b600073ffffffffffffffffffffffffffffffffffffffff168373ffffffffffffffffffffffffffffffffffffffff161415610e6a576040517f08c379a0000000000000000000000000000000000000000000000000000000008152600401610e6190611768565b60405180910390fd5b600073ffffffffffffffffffffffffffffffffffffffff168273ffffffffffffffffffffffffffffffffffffffff161415610eda576040517f08c379a0000000000000000000000000000000000000000000000000000000008152600401610ed1906116e8565b60405180910390fd5b60008060008573ffffffffffffffffffffffffffffffffffffffff1673ffffffffffffffffffffffffffffffffffffffff16815260200190815260200160002054905081811015610f60576040517f08c379a0000000000000000000000000000000000000000000000000000000008152600401610f5790611728565b60405180910390fd5b8181036000808673ffffffffffffffffffffffffffffffffffffffff1673ffffffffffffffffffffffffffffffffffffffff16815260200190815260200160002081905550816000808573ffffffffffffffffffffffffffffffffffffffff1673ffffffffffffffffffffffffffffffffffffffff1681526020019081526020016000206000828254610ff3919061189a565b925050819055508273ffffffffffffffffffffffffffffffffffffffff168473ffffffffffffffffffffffffffffffffffffffff167fddf252ad1be2c89b69c2b068fc378daa952ba7f163c4a11628f55a4df523b3ef846040516110579190611848565b60405180910390a350505050565b60008135905061107481611a19565b92915050565b60008135905061108981611a30565b92915050565b6000602082840312156110a157600080fd5b60006110af84828501611065565b91505092915050565b600080604083850312156110cb57600080fd5b60006110d985828601611065565b92505060206110ea85828601611065565b9150509250929050565b60008060006060848603121561110957600080fd5b600061111786828701611065565b935050602061112886828701611065565b92505060406111398682870161107a565b9150509250925092565b6000806040838503121561115657600080fd5b600061116485828601611065565b92505060206111758582860161107a565b9150509250929050565b611188816118f0565b82525050565b61119781611902565b82525050565b60006111a88261187e565b6111b28185611889565b93506111c2818560208601611945565b6111cb81611a08565b840191505092915050565b60006111e3603283611889565b91507f546f6b656e54696d656c6f636b3a2063757272656e742074696d65206973206260008301527f65666f72652072656c656173652074696d6500000000000000000000000000006020830152604082019050919050565b6000611249602383611889565b91507f45524332303a207472616e7366657220746f20746865207a65726f206164647260008301527f65737300000000000000000000000000000000000000000000000000000000006020830152604082019050919050565b60006112af602283611889565b91507f45524332303a20617070726f766520746f20746865207a65726f20616464726560008301527f73730000000000000000000000000000000000000000000000000000000000006020830152604082019050919050565b6000611315602683611889565b91507f45524332303a207472616e7366657220616d6f756e742065786365656473206260008301527f616c616e636500000000000000000000000000000000000000000000000000006020830152604082019050919050565b600061137b602883611889565b91507f45524332303a207472616e7366657220616d6f756e742065786365656473206160008301527f6c6c6f77616e63650000000000000000000000000000000000000000000000006020830152604082019050919050565b60006113e1602583611889565b91507f45524332303a207472616e736665722066726f6d20746865207a65726f20616460008301527f64726573730000000000000000000000000000000000000000000000000000006020830152604082019050919050565b6000611447601983611889565b91507f45524332304361707065643a20636170206578636565646564000000000000006000830152602082019050919050565b6000611487602483611889565b91507f45524332303a20617070726f76652066726f6d20746865207a65726f2061646460008301527f72657373000000000000000000000000000000000000000000000000000000006020830152604082019050919050565b60006114ed603283611889565b91507f546f6b656e54696d656c6f636b3a2072656c656173652074696d65206973206260008301527f65666f72652063757272656e742074696d6500000000000000000000000000006020830152604082019050919050565b6000611553602583611889565b91507f45524332303a2064656372656173656420616c6c6f77616e63652062656c6f7760008301527f207a65726f0000000000000000000000000000000000000000000000000000006020830152604082019050919050565b60006115b9601f83611889565b91507f45524332303a206d696e7420746f20746865207a65726f2061646472657373006000830152602082019050919050565b60006115f9602383611889565b91507f546f6b656e54696d656c6f636b3a206e6f20746f6b656e7320746f2072656c6560008301527f61736500000000000000000000000000000000000000000000000000000000006020830152604082019050919050565b61165b8161192e565b82525050565b61166a81611938565b82525050565b6000602082019050611685600083018461117f565b92915050565b60006020820190506116a0600083018461118e565b92915050565b600060208201905081810360008301526116c0818461119d565b905092915050565b600060208201905081810360008301526116e1816111d6565b9050919050565b600060208201905081810360008301526117018161123c565b9050919050565b60006020820190508181036000830152611721816112a2565b9050919050565b6000602082019050818103600083015261174181611308565b9050919050565b600060208201905081810360008301526117618161136e565b9050919050565b60006020820190508181036000830152611781816113d4565b9050919050565b600060208201905081810360008301526117a18161143a565b9050919050565b600060208201905081810360008301526117c18161147a565b9050919050565b600060208201905081810360008301526117e1816114e0565b9050919050565b6000602082019050818103600083015261180181611546565b9050919050565b60006020820190508181036000830152611821816115ac565b9050919050565b60006020820190508181036000830152611841816115ec565b9050919050565b600060208201905061185d6000830184611652565b92915050565b60006020820190506118786000830184611661565b92915050565b600081519050919050565b600082825260208201905092915050565b60006118a58261192e565b91506118b08361192e565b9250827fffffffffffffffffffffffffffffffffffffffffffffffffffffffffffffffff038211156118e5576118e46119aa565b5b828201905092915050565b60006118fb8261190e565b9050919050565b60008115159050919050565b600073ffffffffffffffffffffffffffffffffffffffff82169050919050565b6000819050919050565b600060ff82169050919050565b60005b83811015611963578082015181840152602081019050611948565b83811115611972576000848401525b50505050565b6000600282049050600182168061199057607f821691505b602082108114156119a4576119a36119d9565b5b50919050565b7f4e487b7100000000000000000000000000000000000000000000000000000000600052601160045260246000fd5b7f4e487b7100000000000000000000000000000000000000000000000000000000600052602260045260246000fd5b6000601f19601f8301169050919050565b611a22816118f0565b8114611a2d57600080fd5b50565b611a398161192e565b8114611a4457600080fd5b5056fea2646970667358221220f9159c8335e91a5d23d873729b40f897eeccac593ad7008ce78e77fc0b81e00c64736f6c63430008000033",
  "immutableReferences": {
    "474": [
      {
        "length": 32,
        "start": 1368
      }
    ]
  },
  "source": "// SPDX-License-Identifier: MIT\npragma solidity ^0.8.0;\nimport \"./utils/Context.sol\";\nimport \"./utils/IERC20.sol\";\nimport \"./utils/IERC20Metadata.sol\";\n\n\n\ncontract Assignment3B is Context, IERC20, IERC20Metadata {\n    mapping(address => uint256) private _balances;\n\n    mapping(address => mapping(address => uint256)) private _allowances;\n\n    uint256 private _totalSupply = 100000;\n    uint256 private immutable _cap;\n\n    string private _name = \"Assignment3B\";\n    string private _symbol = \"A3B\";\n    address public contractOwner;\n\n     // beneficiary of tokens after they are released\n    address private _beneficiary;\n     // timestamp when token release is enabled\n    uint256 private _releaseTime;\n\n  \n    constructor() {\n       contractOwner = _msgSender();\n       _balances[contractOwner] = _totalSupply;\n        _cap = _totalSupply * 2;\n    }\n\n    modifier isOwner() {\n        require(msg.sender == contractOwner);\n        _;\n    }\n\n    function setTmeBoundBeneficairy(address beneficiary_, uint256 releaseTime_) public {\n        // solhint-disable-next-line not-rely-on-time\n        require(releaseTime_ > block.timestamp, \"TokenTimelock: release time is before current time\");\n        _beneficiary = beneficiary_;\n        _releaseTime = releaseTime_;\n    }\n\n\n    /**\n     * @return the beneficiary of the tokens.\n     */\n    function beneficiary() public view virtual returns (address) {\n        return _beneficiary;\n    }\n\n    /**\n     * @return the time when the tokens are released.\n     */\n    function releaseTime() public view virtual returns (uint256) {\n        return _releaseTime;\n    }\n\n    /**\n     * @notice Transfers tokens held by timelock to beneficiary.\n     */\n    function release() public virtual {\n        // solhint-disable-next-line not-rely-on-time\n        require(block.timestamp >= releaseTime(), \"TokenTimelock: current time is before release time\");\n\n        uint256 amount = balanceOf(address(this));\n        require(amount > 0, \"TokenTimelock: no tokens to release\");\n\n        transfer(beneficiary(), amount);\n    }\n\n\n    /**\n     * @dev Returns the cap on the token's total supply.\n     */\n    function cap() public view virtual returns (uint256) {\n        return _cap;\n    }\n\n    function mint(address account, uint256 amount) public virtual isOwner {\n        require(account != address(0), \"ERC20: mint to the zero address\");\n        require(totalSupply() + amount <= cap(), \"ERC20Capped: cap exceeded\");\n        _totalSupply += amount;\n        _balances[account] += amount;\n        emit Transfer(address(0), account, amount);\n    }\n\n    \n  \n    function name() public view virtual override returns (string memory) {\n        return _name;\n    }\n\n   \n    function symbol() public view virtual override returns (string memory) {\n        return _symbol;\n    }\n\n   \n    function decimals() public view virtual override returns (uint8) {\n        return 0;\n    }\n\n \n    function totalSupply() public view virtual override returns (uint256) {\n        return _totalSupply;\n    }\n\n   \n    function balanceOf(address account) public view virtual override returns (uint256) {\n        return _balances[account];\n    }\n\n   \n    function transfer(address recipient, uint256 amount) public virtual override returns (bool) {\n        _transfer(_msgSender(), recipient, amount);\n        return true;\n    }\n\n    function allowance(address owner, address spender) public view virtual override returns (uint256) {\n        return _allowances[owner][spender];\n    }\n\n   \n    function approve(address spender, uint256 amount) public virtual override returns (bool) {\n        _approve(_msgSender(), spender, amount);\n        return true;\n    }\n\n   \n    function transferFrom(\n        address sender,\n        address recipient,\n        uint256 amount\n    ) public virtual override returns (bool) {\n        _transfer(sender, recipient, amount);\n\n        uint256 currentAllowance = _allowances[sender][_msgSender()];\n        require(currentAllowance >= amount, \"ERC20: transfer amount exceeds allowance\");\n        unchecked {\n            _approve(sender, _msgSender(), currentAllowance - amount);\n        }\n\n        return true;\n    }\n\n  \n    function increaseAllowance(address spender, uint256 addedValue) public virtual returns (bool) {\n        _approve(_msgSender(), spender, _allowances[_msgSender()][spender] + addedValue);\n        return true;\n    }\n\n   \n    function decreaseAllowance(address spender, uint256 subtractedValue) public virtual returns (bool) {\n        uint256 currentAllowance = _allowances[_msgSender()][spender];\n        require(currentAllowance >= subtractedValue, \"ERC20: decreased allowance below zero\");\n        unchecked {\n            _approve(_msgSender(), spender, currentAllowance - subtractedValue);\n        }\n\n        return true;\n    }\n\n   \n    function _transfer(\n        address sender,\n        address recipient,\n        uint256 amount\n    ) internal virtual {\n        require(sender != address(0), \"ERC20: transfer from the zero address\");\n        require(recipient != address(0), \"ERC20: transfer to the zero address\");\n\n\n\n        uint256 senderBalance = _balances[sender];\n        require(senderBalance >= amount, \"ERC20: transfer amount exceeds balance\");\n        unchecked {\n            _balances[sender] = senderBalance - amount;\n        }\n        _balances[recipient] += amount;\n\n        emit Transfer(sender, recipient, amount);\n\n    }\n\n\n    function _approve(\n        address owner,\n        address spender,\n        uint256 amount\n    ) internal virtual {\n        require(owner != address(0), \"ERC20: approve from the zero address\");\n        require(spender != address(0), \"ERC20: approve to the zero address\");\n\n        _allowances[owner][spender] = amount;\n        emit Approval(owner, spender, amount);\n    }\n\n}\n\n\n\n\n\n",
  "sourcePath": "/Users/shahjahansamon/erc20_practice/contracts/Assignment3B.sol",
  "compiler": {
    "name": "solc",
    "version": "0.8.0+commit.c7dfd78e.Emscripten.clang"
  },
  "schemaVersion": "3.4.3",
  "updatedAt": "2021-08-23T10:34:11.597Z",
  "devdoc": {
    "kind": "dev",
    "methods": {
      "beneficiary()": {
        "returns": {
          "_0": "the beneficiary of the tokens."
        }
      },
      "cap()": {
        "details": "Returns the cap on the token's total supply."
      },
      "releaseTime()": {
        "returns": {
          "_0": "the time when the tokens are released."
        }
      }
    },
    "version": 1
  },
  "userdoc": {
    "kind": "user",
    "methods": {
      "release()": {
        "notice": "Transfers tokens held by timelock to beneficiary."
      }
    },
    "version": 1
  }
}